{
    "txid": "d2dc9b210519a264f67fc1c6f5aa8737a39981f964151b770baf8fd76b3ea6eb",
    "hash": "d2dc9b210519a264f67fc1c6f5aa8737a39981f964151b770baf8fd76b3ea6eb",
    "version": 1,
    "size": 85,
    "vsize": 85,
    "locktime": 0,
    "vin": [
        {
            "txid": "4d49a71ec9da436f71ec4ee231d04f292a29cd316f598bb7068feccabdc59485",
            "vout": 0,
            "scriptSig": {
                "asm": "",
                "hex": ""
            },
            "sequence": 4294967295
        }
    ],
    "vout": [
        {
            "value": 0.00100000,
            "n": 0,
            "scriptPubKey": {
                "asm": "OP_DUP OP_HASH160 fa7145f63532e1beb65ce83d5a6bd4b82b98a5eb OP_EQUALVERIFY OP_CHECKSIG",
                "hex": "76a914fa7145f63532e1beb65ce83d5a6bd4b82b98a5eb88ac",
                "reqSigs": 1,
                "type": "pubkeyhash",
                "addresses": [
                    "CfJ7CN7nUoMbigrZsTGiD7t47A5x6TCo2t"
                ]
            }
        }
    ],
    "hex": "01000000018594c5bdcaec8f06b78b596f31cd292a294fd031e24eec716f43dac91ea7494d0000000000ffffffff01a0860100000000001976a914fa7145f63532e1beb65ce83d5a6bd4b82b98a5eb88ac00000000"
}
